:020000040000FA
:08000000803102288731F32F43
:100E0A000800640080010131890B072F003478083B
:100E1A00F0007908203E86008701700881000130C1
:100E2A00F0007008F90708008B130B1321008E01DC
:100E3A00FF308C00FF308D00FF3024008C00FF3023
:100E4A008D000800FF3024008C00FF308D00FF3039
:100E5A008E00210011131D1023008C018D018E01BB
:100E6A00873105278731080087311927873187316C
:100E7A002727873187310C27873187314B278731DD
:100E8A008731B82787313F2F80310228F201612F3D
:100E9A007208203E86008701010887318D27873135
:100EAA000130F1007108F2070B30F1004D30890B67
:100EBA005C2FF10B5C2F003279087202031C662F3B
:100ECA00672F4D2F08007808013E0339F00070089B
:100EDA00F80020000D1B722F732F752F00308C2FF6
:100EEA008D1B782F792F7B2F01308C2F8D1A7E2F17
:100EFA007F2F812F02308C2F0D1A842F852F872F59
:100F0A0003308C2F0330890B882F0000682F0800CC
:100F1A00F0007008031D922F932F962F1F30200088
:100F2A008E007003031D9A2F9B2F9E2F2F302000B7
:100F3A008E0002307006031DA32FA42FA72F3B306B
:100F4A0020008E0003307006031DAC2FAD2FB02F8A
:100F5A003D3020008E001A30890BB12F00003F303F
:100F6A0020008E000800F301EC2F873168278731B3
:100F7A00F1007108F2007308203E8600870101081B
:100F8A007206031DC92FCA2FD62F0130F10071082E
:100F9A00F3070630F1002630890BD12FF10BD12F40
:100FAA00EC2F373020008E00E23000320032890BFD
:100FBA00DA2F003200320000F9013F3020008E00A3
:100FCA001530F1009D30890BE82FF10BE82F7908D5
:100FDA007302031CF12FF22FBA2F0800F801F9014E
:100FEA0020308400003085003C3087310627873165
:060FFA0020008731392FB1
:020000040001F9
:08000E00C83F3337FF1FFF3F1D
:00000001FF
